{
  "_format": "hh-sol-artifact-1",
  "contractName": "CoffeePortal",
  "sourceName": "contracts/CoffeePortal.sol",
  "abi": [
    {
      "inputs": [],
      "stateMutability": "payable",
      "type": "constructor"
    },
    {
      "anonymous": false,
      "inputs": [
        {
          "indexed": true,
          "internalType": "address",
          "name": "from",
          "type": "address"
        },
        {
          "indexed": false,
          "internalType": "uint256",
          "name": "timestamp",
          "type": "uint256"
        },
        {
          "indexed": false,
          "internalType": "string",
          "name": "message",
          "type": "string"
        }
      ],
      "name": "NewCoffee",
      "type": "event"
    },
    {
      "inputs": [
        {
          "internalType": "string",
          "name": "_message",
          "type": "string"
        }
      ],
      "name": "coffee",
      "outputs": [],
      "stateMutability": "nonpayable",
      "type": "function"
    },
    {
      "inputs": [],
      "name": "getAllCoffees",
      "outputs": [
        {
          "components": [
            {
              "internalType": "address",
              "name": "sender",
              "type": "address"
            },
            {
              "internalType": "string",
              "name": "message",
              "type": "string"
            },
            {
              "internalType": "uint256",
              "name": "timestamp",
              "type": "uint256"
            }
          ],
          "internalType": "struct CoffeePortal.Coffee[]",
          "name": "",
          "type": "tuple[]"
        }
      ],
      "stateMutability": "view",
      "type": "function"
    },
    {
      "inputs": [],
      "name": "getTotalCoffee",
      "outputs": [
        {
          "internalType": "uint256",
          "name": "",
          "type": "uint256"
        }
      ],
      "stateMutability": "view",
      "type": "function"
    },
    {
      "inputs": [
        {
          "internalType": "address",
          "name": "",
          "type": "address"
        }
      ],
      "name": "lastCoffeeAt",
      "outputs": [
        {
          "internalType": "uint256",
          "name": "",
          "type": "uint256"
        }
      ],
      "stateMutability": "view",
      "type": "function"
    }
  ],
  "bytecode": "0x60806040526200004f6040518060400160405280601581526020017f4920616d206120536d61727420436f6e747261637400000000000000000000008152506200007760201b620006d81760201c565b606444426200005f9190620001c4565b6200006b919062000261565b60018190555062000308565b62000117816040516024016200008e919062000184565b6040516020818303038152906040527f41304fac000000000000000000000000000000000000000000000000000000007bffffffffffffffffffffffffffffffffffffffffffffffffffffffff19166020820180517bffffffffffffffffffffffffffffffffffffffffffffffffffffffff83818316178352505050506200011a60201b60201c565b50565b60008151905060006a636f6e736f6c652e6c6f679050602083016000808483855afa5050505050565b60006200015082620001a8565b6200015c8185620001b3565b93506200016e8185602086016200022b565b6200017981620002f7565b840191505092915050565b60006020820190508181036000830152620001a0818462000143565b905092915050565b600081519050919050565b600082825260208201905092915050565b6000620001d18262000221565b9150620001de8362000221565b9250827fffffffffffffffffffffffffffffffffffffffffffffffffffffffffffffffff0382111562000216576200021562000299565b5b828201905092915050565b6000819050919050565b60005b838110156200024b5780820151818401526020810190506200022e565b838111156200025b576000848401525b50505050565b60006200026e8262000221565b91506200027b8362000221565b9250826200028e576200028d620002c8565b5b828206905092915050565b7f4e487b7100000000000000000000000000000000000000000000000000000000600052601160045260246000fd5b7f4e487b7100000000000000000000000000000000000000000000000000000000600052601260045260246000fd5b6000601f19601f8301169050919050565b61127480620003186000396000f3fe608060405234801561001057600080fd5b506004361061004c5760003560e01c80634839ee3f146100515780639ac7e5a71461006f578063bfa60ae01461009f578063c2000268146100bb575b600080fd5b6100596100d9565b6040516100669190610f06565b60405180910390f35b61008960048036038101906100849190610a91565b610124565b6040516100969190610f06565b60405180910390f35b6100b960048036038101906100b49190610aba565b61013c565b005b6100c3610587565b6040516100d09190610dbd565b60405180910390f35b600061011c6040518060400160405280601881526020017f5765206861766520256420746f74616c20436f66666565210000000000000000815250600054610771565b600054905090565b60036020528060005260406000206000915090505481565b426014600360003373ffffffffffffffffffffffffffffffffffffffff1673ffffffffffffffffffffffffffffffffffffffff168152602001908152602001600020546101899190611023565b106101c9576040517f08c379a00000000000000000000000000000000000000000000000000000000081526004016101c090610ec6565b60405180910390fd5b42600360003373ffffffffffffffffffffffffffffffffffffffff1673ffffffffffffffffffffffffffffffffffffffff16815260200190815260200160002081905550600160008082825461021f9190611023565b925050819055506102666040518060400160405280601e81526020017f257320626f7567687420436f6666656520772f206d6573736167652025730000815250338361080d565b600260405180606001604052803373ffffffffffffffffffffffffffffffffffffffff16815260200183815260200142815250908060018154018082558091505060019003906000526020600020906003020160009091909190915060008201518160000160006101000a81548173ffffffffffffffffffffffffffffffffffffffff021916908373ffffffffffffffffffffffffffffffffffffffff1602179055506020820151816001019080519060200190610325929190610971565b50604082015181600201555050606460015442446103439190611023565b61034d9190611023565b6103579190611129565b60018190555061039e6040518060400160405280601681526020017f52616e646f6d20232067656e6572617465643a20256400000000000000000000815250600154610771565b3373ffffffffffffffffffffffffffffffffffffffff167fb27aadfb092ec052f4b96786f876dd03a93556f9dc3b6bd4a8f7c0ef5ddab69842836040516103e6929190610f21565b60405180910390a26000655af3107a40009050603c60015411610533576104426040518060400160405280600781526020017f257320776f6e2100000000000000000000000000000000000000000000000000815250336108ac565b47811115610485576040517f08c379a000000000000000000000000000000000000000000000000000000000815260040161047c90610ea6565b60405180910390fd5b60003373ffffffffffffffffffffffffffffffffffffffff16826040516104ab90610da8565b60006040518083038185875af1925050503d80600081146104e8576040519150601f19603f3d011682016040523d82523d6000602084013e6104ed565b606091505b5050905080610531576040517f08c379a000000000000000000000000000000000000000000000000000000000815260040161052890610ee6565b60405180910390fd5b505b3373ffffffffffffffffffffffffffffffffffffffff167fb27aadfb092ec052f4b96786f876dd03a93556f9dc3b6bd4a8f7c0ef5ddab698428460405161057b929190610f21565b60405180910390a25050565b60606002805480602002602001604051908101604052809291908181526020016000905b828210156106cf57838290600052602060002090600302016040518060600160405290816000820160009054906101000a900473ffffffffffffffffffffffffffffffffffffffff1673ffffffffffffffffffffffffffffffffffffffff1673ffffffffffffffffffffffffffffffffffffffff168152602001600182018054610634906110f7565b80601f0160208091040260200160405190810160405280929190818152602001828054610660906110f7565b80156106ad5780601f10610682576101008083540402835291602001916106ad565b820191906000526020600020905b81548152906001019060200180831161069057829003601f168201915b50505050508152602001600282015481525050815260200190600101906105ab565b50505050905090565b61076e816040516024016106ec9190610ddf565b6040516020818303038152906040527f41304fac000000000000000000000000000000000000000000000000000000007bffffffffffffffffffffffffffffffffffffffffffffffffffffffff19166020820180517bffffffffffffffffffffffffffffffffffffffffffffffffffffffff8381831617835250505050610948565b50565b6108098282604051602401610787929190610e76565b6040516020818303038152906040527f9710a9d0000000000000000000000000000000000000000000000000000000007bffffffffffffffffffffffffffffffffffffffffffffffffffffffff19166020820180517bffffffffffffffffffffffffffffffffffffffffffffffffffffffff8381831617835250505050610948565b5050565b6108a783838360405160240161082593929190610e31565b6040516020818303038152906040527fe0e9ad4f000000000000000000000000000000000000000000000000000000007bffffffffffffffffffffffffffffffffffffffffffffffffffffffff19166020820180517bffffffffffffffffffffffffffffffffffffffffffffffffffffffff8381831617835250505050610948565b505050565b61094482826040516024016108c2929190610e01565b6040516020818303038152906040527f319af333000000000000000000000000000000000000000000000000000000007bffffffffffffffffffffffffffffffffffffffffffffffffffffffff19166020820180517bffffffffffffffffffffffffffffffffffffffffffffffffffffffff8381831617835250505050610948565b5050565b60008151905060006a636f6e736f6c652e6c6f679050602083016000808483855afa5050505050565b82805461097d906110f7565b90600052602060002090601f01602090048101928261099f57600085556109e6565b82601f106109b857805160ff19168380011785556109e6565b828001600101855582156109e6579182015b828111156109e55782518255916020019190600101906109ca565b5b5090506109f391906109f7565b5090565b5b80821115610a105760008160009055506001016109f8565b5090565b6000610a27610a2284610f82565b610f51565b905082815260208101848484011115610a3f57600080fd5b610a4a8482856110b5565b509392505050565b600081359050610a6181611227565b92915050565b600082601f830112610a7857600080fd5b8135610a88848260208601610a14565b91505092915050565b600060208284031215610aa357600080fd5b6000610ab184828501610a52565b91505092915050565b600060208284031215610acc57600080fd5b600082013567ffffffffffffffff811115610ae657600080fd5b610af284828501610a67565b91505092915050565b6000610b078383610d3a565b905092915050565b610b1881611079565b82525050565b610b2781611079565b82525050565b6000610b3882610fc2565b610b428185610fe5565b935083602082028501610b5485610fb2565b8060005b85811015610b905784840389528151610b718582610afb565b9450610b7c83610fd8565b925060208a01995050600181019050610b58565b50829750879550505050505092915050565b6000610bad82610fcd565b610bb78185611001565b9350610bc78185602086016110c4565b610bd081611216565b840191505092915050565b6000610be682610fcd565b610bf08185611012565b9350610c008185602086016110c4565b610c0981611216565b840191505092915050565b6000610c21603483611012565b91507f547279696e6720746f207769746864726177206d6f7265206d6f6e657920746860008301527f616e2074686520636f6e7472616374206861732e0000000000000000000000006020830152604082019050919050565b6000610c87600783611012565b91507f5761697420326d000000000000000000000000000000000000000000000000006000830152602082019050919050565b6000610cc7602783611012565b91507f4661696c656420746f207769746864726177206d6f6e65792066726f6d20636f60008301527f6e74726163742e000000000000000000000000000000000000000000000000006020830152604082019050919050565b6000610d2d600083610ff6565b9150600082019050919050565b6000606083016000830151610d526000860182610b0f565b5060208301518482036020860152610d6a8282610ba2565b9150506040830151610d7f6040860182610d8a565b508091505092915050565b610d93816110ab565b82525050565b610da2816110ab565b82525050565b6000610db382610d20565b9150819050919050565b60006020820190508181036000830152610dd78184610b2d565b905092915050565b60006020820190508181036000830152610df98184610bdb565b905092915050565b60006040820190508181036000830152610e1b8185610bdb565b9050610e2a6020830184610b1e565b9392505050565b60006060820190508181036000830152610e4b8186610bdb565b9050610e5a6020830185610b1e565b8181036040830152610e6c8184610bdb565b9050949350505050565b60006040820190508181036000830152610e908185610bdb565b9050610e9f6020830184610d99565b9392505050565b60006020820190508181036000830152610ebf81610c14565b9050919050565b60006020820190508181036000830152610edf81610c7a565b9050919050565b60006020820190508181036000830152610eff81610cba565b9050919050565b6000602082019050610f1b6000830184610d99565b92915050565b6000604082019050610f366000830185610d99565b8181036020830152610f488184610bdb565b90509392505050565b6000604051905081810181811067ffffffffffffffff82111715610f7857610f776111e7565b5b8060405250919050565b600067ffffffffffffffff821115610f9d57610f9c6111e7565b5b601f19601f8301169050602081019050919050565b6000819050602082019050919050565b600081519050919050565b600081519050919050565b6000602082019050919050565b600082825260208201905092915050565b600081905092915050565b600082825260208201905092915050565b600082825260208201905092915050565b600061102e826110ab565b9150611039836110ab565b9250827fffffffffffffffffffffffffffffffffffffffffffffffffffffffffffffffff0382111561106e5761106d61115a565b5b828201905092915050565b60006110848261108b565b9050919050565b600073ffffffffffffffffffffffffffffffffffffffff82169050919050565b6000819050919050565b82818337600083830152505050565b60005b838110156110e25780820151818401526020810190506110c7565b838111156110f1576000848401525b50505050565b6000600282049050600182168061110f57607f821691505b60208210811415611123576111226111b8565b5b50919050565b6000611134826110ab565b915061113f836110ab565b92508261114f5761114e611189565b5b828206905092915050565b7f4e487b7100000000000000000000000000000000000000000000000000000000600052601160045260246000fd5b7f4e487b7100000000000000000000000000000000000000000000000000000000600052601260045260246000fd5b7f4e487b7100000000000000000000000000000000000000000000000000000000600052602260045260246000fd5b7f4e487b7100000000000000000000000000000000000000000000000000000000600052604160045260246000fd5b6000601f19601f8301169050919050565b61123081611079565b811461123b57600080fd5b5056fea264697066735822122000b1aa756be1fb5d7e29b4fe6880be670d6528227cd0da44fd8da8815a6a0c8964736f6c63430008000033",
  "linkReferences": {},
  "deployedLinkReferences": {}
}